:060000000A128A1110280B
:10000800FE00030EF0000A08F100831203137F08B4
:10001800F2000A128A15E62C0A128A1113280A120B
:100028008A11FC270A128A11FA00831320308400EF
:1000380044300A128A1564230A128A11F801F90158
:1000480083010A128A11332E83120313D400143049
:100058003A063B04031D312832288428FF30D1009A
:100068005108D400A401A501A801A901A201A30176
:10007800A601A701B430C4008530C5008030D10086
:100088005108C6000A128A1502240A128A118C30F5
:1000980083120313D1005108CF00DF300A128A11EE
:1000A800E7270A128A112F3083120313C4008630FF
:1000B800C5008D30D1005108C6000A128A150224E5
:1000C8000A128A11EB3083120313C4008530C5006D
:1000D800C030D1005108C6000A128A1502240A123B
:1000E8008A11663083120313C4008530C500D030EE
:1000F800D1005108C6000A128A1502240A128A1170
:1001080083120313540A03198A288B28C4282A3017
:100118005406031990289128C4282330540603193B
:1001280096289728C4280130A4070318A50A003088
:10013800A5072508803AFF0080307F02031DA62806
:10014800043024020318A928AA28D52983120313E6
:100158002308F4002208F3000A30F5000030F60006
:100168000A128A15D7230A128A1183120313540814
:100178007307A2000030031801307407A300D529C3
:100188002A305406031DC928CA28CF28A401A5016E
:10019800A201A301D52923305406031DD428D5284C
:1001A800D5290A128A155C230A128A1183120313AD
:1001B8002308803AFF0080307F02031DE528FB30CA
:1001C8002202031CE828E928132996308312031316
:1001D800C4008530C500C030D1005108C6000A12DD
:1001E8008A1502240A128A118312031387143330E2
:1001F80083120313D300BB30D200DF30D100D10B00
:100208000329D20B0329D30B032983120313871065
:100218000A128A155C230A128A110130692AD03021
:1002280083120313C4008530C5008030D100510803
:10023800C6000A128A1502240A128A113230831261
:100248000313B6000030B70012150330C40086301F
:10025800C5009030D1005108C6000A128A15022440
:100268000A128A11CB290A128A15A8240A128A119D
:1002780083120313D100510C031843294729831211
:10028800031386154A29831203138611861D4D29E7
:100298004E296A29D030C4008530C5008030D1008D
:1002A8005108C6000A128A1502240A128A1103305C
:1002B80083120313C4008630C5009030D100510862
:1002C800C6000A128A1502240A128A119A30831269
:1002D8000313D1005108CF006430F3000030F4005C
:1002E8003708F6003608F5000A128A15FC250A12A6
:1002F8008A117308303E0A128A11E7270A128A11F6
:100308009B3083120313D1005108CF000A30C80074
:100318000030C9000A30F3000030F4003708F60056
:100328003608F5000A128A15FC250A128A11740883
:1003380083120313CB007308CA000A128A153E25DC
:100348000A128A11831203134808303E0A128A11CE
:10035800E7270A128A119C3083120313D10051082F
:10036800CF000A30C8000030C9003708CB00360873
:10037800CA000A128A153E250A128A11831203132B
:100388004808303E0A128A11E7270A128A11831296
:10039800031336083704031DD229D329372900301F
:1003A800692A013083120313A6070318A70A00302D
:1003B800A7071A3026062704031DE329E429532A30
:1003C800A601A701280829040319EB29ED29013002
:1003D800EE290030D100D2015108A8005208A90026
:1003E800C830D1005108CF006430F3000030F40069
:1003F8002308F6002208F5000A128A15FC250A12BD
:100408008A117308303E0A128A11E7270A128A11E4
:10041800C93083120313D1005108CF000A30C80035
:100428000030C9000A30F3000030F4002308F60059
:100438002208F5000A128A15FC250A128A11740886
:1004480083120313CB007308CA000A128A153E25CB
:100458000A128A11831203134808303E0A128A11BD
:10046800E7270A128A11CA3083120313D1005108F0
:10047800CF000A30C8000030C9002308CB0022088A
:10048800CA000A128A153E250A128A11831203131A
:100498004808303E0A128A11E7270A128A11831285
:1004A80003132808290403195A2A5B2A682A0D30DD
:1004B800C4008530C500C830D1005108C6000A12F2
:1004C8008A1502240A128A111130080083120313B4
:1004D800D1003B08803AFF0080307F02031D762A56
:1004E80011303A02031C792A7A2AB52AFF3083127E
:1004F8000313CF004F08D100F801F901B601B70185
:10050800B801B901AE01AF01AA01AB014430C40082
:100518008530C5008030CF004F08C6000A128A1502
:1005280002240A128A11F73083120313C40085309B
:10053800C500C030CF004F08C6000A128A15022431
:100548000A128A11663083120313C4008530C5006D
:10055800D030CF004F08C6000A128A1502240A12AA
:100568008A1183120313510A0319BB2ABC2A5B2B75
:100578002A3051060319C12AC22A5B2B233051069F
:100588000319C72AC82A5B2B0130F8070318F90A90
:100598000030F9077908803AFF0080307F02031D98
:1005A800D72A033078020318DA2ADB2AF52A8312BD
:1005B80003133708F4003608F3000A30F50000305A
:1005C800F6000A128A15D7230A128A118312031316
:1005D80051087307B6000030031801307407B700DC
:1005E800282B7908803AFF0080307F02031DFE2AFD
:1005F80003307802031C012B022B282B7908803A40
:10060800FF0080307F02031D0B2B05307802031892
:100618000E2B0F2B282B831203133908F4003808EC
:10062800F3000A30F5000030F6000A128A15D723C5
:100638000A128A118312031351087307B800003095
:10064800031801307407B9007908803AFF00803038
:100658007F02031D312B023078020318342B352B0F
:100668003A2B83120313AA01AB01AD2B7908803A08
:10067800FF0080307F02031D432B03307802031CE8
:10068800462B472BAD2B7908803AFF0080307F023C
:10069800031D502B053078020318532B542BAD2B18
:1006A800013083120313AA000030AB00AD2B2A30AF
:1006B8005106031D602B612B9A2B7908803AFF00A5
:1006C80080307F02031D6A2B0330780203186D2BDC
:1006D8006E2B772B83120313B601B701F801F901CA
:1006E800AA01AB01AD2B7908803AFF0080307F0268
:1006F800031D802B03307802031C832B842BAD2B26
:100708007908803AFF0080307F02031D8D2B053069
:1007180078020318902B912BAD2B83120313B80189
:10072800B9010230F8000030F900542B233051068B
:10073800031D9F2BA02BAD2B0A128A155C230A12CE
:100748008A1183120313121507150630BC000030F6
:10075800BD000A30F3000030F40083120313370899
:10076800F6003608F5000A128A15FC250A128A11C5
:100778007308303E83120313CF004F08C1000A30BC
:10078800C8000030C9003708CB003608CA000A1272
:100798008A153E250A128A11831203134808303E2F
:1007A800CF004F08C200C3010A30F3000030F40044
:1007B8003908F6003808F5000A128A15FC250A12CD
:1007C8008A117308303E83120313CF004F08BE000E
:1007D8000A30C8000030C9003908CB003808CA0000
:1007E8000A128A153E250A128A1183120313480831
:1007F800303ECF004F08BF00C0010130AC070318DE
:10080800AD0A0030AD0733302C062D04031D0D2C26
:100818000E2C3A2CAC01AD012E082F040319152C0F
:10082800172C0130182C0030CF00D0014F08AE0033
:100838005008AF003E30C4000030C500C630CF00BD
:100848004F08C6000A128A1502240A128A1141307A
:1008580083120313C4000030C500C930CF004F080D
:10086800C6000A128A1502240A128A118312031377
:100878002E082F040319412C422C6C2C5F2C0E30AF
:10088800C4008530C500C930CF004F08C6000A1221
:100898008A1502240A128A116C2C0E30C400853085
:1008A800C500C630CF004F08C6000A128A150224B8
:1008B8000A128A116C2C2B08003A0319642C6C2C30
:1008C8002A08003A0319432C013A0319512C6C2CBD
:1008D800080083120313D401D501831203135408AB
:1008E800803ED1005108CF00FF300A128A11E72755
:1008F8000A128A11013083120313D4070318D50A88
:100908000030D5075508803AFF0080307F02031D6C
:100918008F2C10305402031C922C932C712C87308E
:1009280083120313C4008530C500C030D1005108BC
:10093800C6000A128A1502240A128A113330831259
:100948000313C4008530C5009030D1005108C6009B
:100958000A128A1502240A128A1183120313D60175
:10096800D701831203135608D03ED1005108CF0097
:10097800FF300A128A11E7270A128A1101308312FE
:100988000313D6070318D70A0030D7075708803A49
:10099800FF0080307F02031DD32C10305602031C49
:1009A800D62CD72CB52C1A3083120313D3005E3003
:1009B800D2006D30D100D10BDF2CD20BDF2CD30B42
:1009C800DF2CE62C0800FF1BF12C83137F188317FC
:1009D8000008840A0319FF0A08007F087F398A0083
:0A09E8000408840A0319FF0A8200C4
:100A0000203436342E34533454344F34503420345C
:100A10002034203420342034203420342034203436
:100A20000034203435342E3450344134553453346A
:100A300045342034203420342034203420342034F1
:100A400020340034203434342E345334543441347C
:100A5000523454342F3452344534533455344D3495
:100A600045342034003420344D34693463347234D6
:100A70006F34773461347634653420344F347634CF
:100A800065346E34203400345334453454342034C7
:100A9000543449344D344534203428344D344D34A5
:100AA0003A34533453342934003444346F346F347B
:100AB0007234203453347434613474347534733480
:100AC0003A344F34503445344E3400342A343A34B6
:100AD00043344C34453441345234203420342334AC
:100AE0003A3445344E34543445345234003443346B
:100AF0006F346F346B3469346E346734203454345B
:100B000069346D3465342034553450340034203425
:100B1000203450346F3477346534723469346E3431
:100B2000673420344F344E34203400342034493478
:100B30006E34763461346C34693464342034543423
:100B400065346D3470342E34003420342034503405
:100B50006C346534613473346534203443346C341C
:100B60006F34733465340034533445345434203492
:100B7000543445344D3450342E3420342834203409
:100B800020340034203450346F3477346534723478
:100B900020343D3420343934303430345734003448
:100BA000203420345034723465342D344834653464
:100BB0006134743469346E346734003433342E3421
:100BC00043346F346E34763465346334743469344A
:100BD0006F346E3400342034543445344D34503442
:100BE00020343A3420343034303430340034543407
:100BF00049344D3445342D342034303430343A3493
:100C0000303430340034543469346D346534203435
:100C1000523465346D342E343D3400342034543431
:100C200049344D34453420343D342034003432349A
:100C30002E344734723469346C346C3400343134BB
:100C40002E344D346934633472346F3400343434A8
:100C50002E34533474346134723474340034433475
:100C60002034293400340A128A1594230A128A1176
:100C70000A128A116D240A128A110A128A155C233B
:100C80000A128A11013083120313BC000030BD0028
:100C900001300A128A15B2230A128A118312031331
:100CA000D8005808DB0002303C063D040319592ED9
:100CB0005A2E2F2F03303C063D040319602E612E5F
:100CC0002F2F04303C063D04031D672E682E6A2E2C
:100CD0002F2F2F2F5B03031D6E2E6F2EA62E02309B
:100CE000BC000030BD001130BA000030BB00F30181
:100CF0000C300A128A1535240A128A110A128A1532
:100D00005C230A128A11C23083120313C400853097
:100D1000C500C030D8005808C6000A128A1502243F
:100D20000A128A114D3083120313DA001930D900E8
:100D30004F30D800D80B9A2ED90B9A2EDA0B9A2E58
:100D40000A128A155C230A128A112F2F02305B06C1
:100D5000031DAB2EAC2EB52E0330BC000030BD0001
:100D60001230BA000030BB00A02E03305B06031D1A
:100D7000BA2EBB2EC42E0430BC000030BD0014308F
:100D8000BA000030BB00A02E04305B06031DC92E44
:100D9000CA2E182F3C033D04031DCF2ED02EDD2E6E
:100DA000B801B9011E30B6000030B70012150715A2
:100DB0000630BC000030BD002F2F06303C063D043D
:100DC000031DE32EE42E0A2F36081E3EB600370818
:100DD0000318013E003EB7003708803AFF0080301C
:100DE0007F02031DF52E3C303602031CF82EF92E2F
:100DF000692E013083120313B8070318B90A0030B3
:100E0000B9073608C43EB60037080318013EFF3E56
:100E1000B7002F2F08303C063D04031D102F112F63
:100E2000692E121507150530BC000030BD002F2FAC
:100E300005305B06031D1D2F1E2F242F0830BC001C
:100E40000030BD0007112F2F06305B06031D292F30
:100E50002A2F692E0730BC000030BD00A02E83125F
:100E600003135B080A128A1565260A128A11482E96
:100E70000A128A1110288312031388110815881486
:100E800008146430F3000030F400FF30F307031857
:100E9000F40AFF30F407730A031D522F740A031D6E
:100EA000522F532F452F831203130618582F592FF3
:100EB0005B2F0130E62F86185E2F5F2F612F0230E7
:100EC000E62F0619642F652F672F0330E62F88154C
:100ED0000811881408146430F3000030F400FF3067
:100EE000F3070318F40AFF30F407730A031D7C2F7D
:100EF000740A031D7C2F7D2F6F2F83120313061896
:100F0000822F832F852F0430E62F8618882F892F74
:100F10008B2F0530E62F06198E2F8F2F912F06303D
:100F2000E62F88150815881008146430F300003087
:100F3000F400FF30F3070318F40AFF30F407730AD4
:100F4000031DA62F740A031DA62FA72F992F831206
:100F500003130618AC2FAD2FAF2F0730E62F8618DE
:100F6000B22FB32FB52F0830E62F0619B82FB92F9F
:100F7000BB2F0930E62F8815081588140810643037
:100F8000F3000030F400FF30F3070318F40AFF30D9
:100F9000F407730A031DD02F740A031DD02FD12F1D
:100FA000C32F831203130618D62FD72FD92F2A3019
:100FB000E62F8618DC2FDD2FDF2F0030E62F0619F5
:100FC000E22FE32FE52F2330E62FFF3008008312B6
:100FD0000313D000F3014F080A128A1535240A12B0
:100FE0008A11F301F30A8312031350080A128A15B7
:0A0FF00035240A128A1108000134AA
:1016B800F30101300A128A1535240A128A15080026
:1016C80064008001840A0406031900340406652BAB
:1016D800831603138801091189100A128A1599259E
:1016E8000A128A1508008312031312149214FA308E
:1016F8008316031392008C1483120313121108002B
:10170800831603130608073886000808F03988008E
:101718008113831203138815081588140814080008
:101728000A128A156C230A128A150A128A1584234A
:101738000A128A150A128A1577230A128A1583163D
:1017480003138710831203138710831603130711DB
:101758008312031307110B178B170800F6000A12E0
:101768008A113B270A128A15F5007508F7007608D2
:10177800031DBF2BC02BC22B7708D62B770A031962
:10178800C62BC72BCE2B7A080319CB2BCC2BCE2BF1
:10179800FA01C02B770A031DD22BD32BD52BFA01C4
:1017A800FA0AFF30080083120313C401C501731C31
:1017B800DE2BDF2BE72B750883120313C4070318EE
:1017C800C50A7608C50701300310F50DF60DFF3E72
:1017D800031DE82B01300310F40CF30CFF3E031D2E
:1017E800EF2B73087404031DFA2BFB2BDB2B8312DE
:1017F80003134508F4004408F3000800F3018312BA
:10180800031346080A128A1535240A128A15242C4D
:10181800F301F30A4508FF00440884000A128A11FC
:10182800E7240A128A150A128A1535240A128A151B
:10183800013083120313C4070318C50A0030C50713
:10184800831203134508FF00440884000A128A1112
:10185800E7240A128A15003A031D332C342C0C2C69
:101868000800F6007318392C3D2C83120313091550
:10187800402C8312031309117608F0398800891463
:10188800A630F400F40B462C0000831203138910D1
:1018980076080F39F40003300310F40DFF3E031DE2
:1018A800502C0310740D88008914A630F400F40B32
:1018B8005B2C00008312031389101B30F5009E3047
:1018C800F400F40B652CF50B652C000008001F30A4
:1018D80083120313C4008630C5008030F7007708F0
:1018E800C6000A128A1502240A128A1517308312B2
:1018F8000313C4008630C500C030F7007708C6005F
:101908000A128A1502240A128A15DE30831203137A
:10191800C4008530C5009030F7007708C6000A1269
:101928008A1502240A128A15273083120313C40069
:101938008630C500D030F7007708C6000A128A152D
:1019480002240A128A150800831203138619AD2C83
:10195800AE2CE42C8714071112110A128A155C2385
:101968000A128A15553083120313C4008530C50046
:10197800C030F7007708C6000A128A1502240A1236
:101988008A15A53083120313C4008530C500903032
:10199800F7007708C6000A128A1502240A128A1567
:1019A80083120313861DD92CDA2CD42C0A128A151B
:1019B8005C230A128A158312031312158710071560
:1019C800013008008C1CE92CEA2C352D0130A007C9
:1019D8000318A10A0030A107E230200604300319D9
:1019E8002106031DF82CF92C322DA001A10137087E
:1019F800803AFF0080307F02031D042D013036023B
:101A0800031C072D082D112DFF3083120313B60771
:101A18000318B70AFF30B707322D831203133608AD
:101A28003704031D182D192D322D3908803AFF006F
:101A380080307F02031D222D01303802031C252D22
:101A4800262D322DFF3083120313B8070318B90A65
:101A5800FF30B9073B30B6000030B70083120313DC
:101A68008C107208FF0071088A00700E8300FE0E49
:101A78007E0E090083120313CE01CB1F442D452D82
:101A88004C2DCA09CB09CA0A0319CB0ACE01CE0AC2
:101A9800C91F4F2D502D552DC809C909C80A03194A
:101AA800C90A4808490403195A2D5B2D8A2DCD010E
:101AB800CD0A692D01300310C80DC90DFF3E031D65
:101AC8005F2D0130CC004C08CD07C91F6C2D6D2D42
:101AD8005E2D49084B02031D732D48084A02031C5A
:101AE800762D772D7D2D4808CA024908031CCB03A3
:101AF800CB0201300310C90CC80CFF3E031D7E2D1C
:101B08000130CD02031D892D8A2D6D2D4E08031934
:101B18008E2D8F2D942DCA09CB09CA0A0319CB0A19
:101B28004B08C9004A08C8000800C33083120313D1
:101B3800C500CC30C400C40B9F2DC50B9F2D0000E1
:101B4800F30130300A128A1535240A128A151B301F
:101B580083120313C5009D30C400C40BB12DC50BFF
:101B6800B12DB62DF30130300A128A1535240A1228
:101B78008A15A53083120313C400C40BC12DC42DCC
:101B8800F30130300A128A1535240A128A15CC2D31
:101B9800CD2D0000F30102300A128A1535240A12ED
:101BA8008A15A53083120313C400C40BD92DDC2D6C
:101BB800F30101300A128A1535240A128A150430F5
:101BC80083120313C5003D30C400C40BE92DC50BB7
:101BD800E92DF3010C300A128A1535240A128A15E8
:101BE800A53083120313C400C40BF82DFB2D080085
:101BF80083120313C501F41F022E032E0A2EF309C4
:101C0800F409F30A0319F40AC501C50AF61F0D2ED3
:101C18000E2E172EF509F609F50A0319F60A0130F2
:101C2800F7007708C506C601C701730874040319CD
:101C38001E2E1F2E562EC401C40A2D2E013003104D
:101C4800F30DF40DFF3E031D232E0130F700770836
:101C5800C407F41F302E312E222E01300310C60D7A
:101C6800C70DFF3E031D322E74087602031D3E2E5B
:101C780073087502031C412E422E492E7308F50283
:101C88007408031CF603F602461401300310F40C22
:101C9800F30CFF3E031D4A2E0130C402031D552ECE
:101CA800562E312E450803195A2E5B2E602EC60972
:101CB800C709C60A0319C70A4708F4004608F3000B
:101CC800080083120313D700D82E0A128A156B2432
:101CD8000A128A15F42E0A128A1501270A128A1581
:101CE800F42E57080A128A116A220A128A15F42E4B
:101CF80057080A128A116A220A128A15F42E300825
:101D08003104031D882E892ECA2E57080A128A11FB
:101D180028200A128A1583120313D500D601550804
:101D2800B4005608B50034033504031D9C2E9D2EBF
:101D3800A62E0130B2000030B3001430BA000030D3
:101D4800BB00F42E34083504031DAB2EAC2EC72E71
:101D580012110130B2000030B3000130B000003081
:101D6800B1000A128A155C230A128A1513308312ED
:101D78000313BA000030BB0057080A128A116A22FE
:101D88000A128A15F42EB201B301F42E57080A126A
:101D98008A116A220A128A15F42E121107110130CB
:101DA800BC000030BD00F42E3D08003A0319DD2EBA
:101DB800F42E3C08013A0319692E033A0319752ECB
:101DC800013A03197C2E073A0319832E013A0319A5
:101DD8006F2E033A03196F2E013A0319D12EF42EF0
:101DE8008312031332083304031DFB2EFC2E002F2D
:101DF8000F30BA000030BB0008000A128A15A82468
:101E08000A128A150E3083120313C4008630C500E7
:101E18008030D1005108C6000A128A1502240A121D
:101E28008A150A30F3000030F400831203133908CE
:101E3800F6003808F5000A128A15FC250A128A15D8
:101E48007308303E83120313D1005108BE000A30D4
:101E5800C8000030C9003908CB003808CA000A1287
:101E68008A153E250A128A15831203134808303E44
:101E7800D1005108BF00C0013E30C4000030C50089
:101E88008930D1005108C6000A128A1502240A12A4
:101E98008A158B3083120313D1005108CF003A30D2
:101EA8000A128A11E7270A128A158C308312031343
:101EB800D1005108CF000A30F3000030F400370891
:101EC800F6003608F5000A128A15FC250A128A154A
:101ED8007308303E0A128A11E7270A128A158D30D4
:101EE80083120313D1005108CF000A30C800003014
:101EF800C9003708CB003608CA000A128A153E25E1
:101F08000A128A15831203134808303E0A128A11EE
:101F1800E7270A128A15223083120313C40085307A
:101F2800C500C030D1005108C6000A128A15022423
:101F38000A128A15113083120313C4008530C500B4
:101F48009030D1005108C6000A128A1502240A12DC
:101F58008A15003083120313C4008530C500D030C1
:101F6800D1005108C6000A128A1502240A128A15DD
:101F78008312031338083904031DC32FC42FFF2FFE
:101F880036083704031DC92FCA2FFF2F1211071156
:101F98000A128A155C230A128A15773083120313F2
:101FA800C4008530C500C030D1005108C6000A12EF
:101FB8008A1502240A128A158312031387144D30D6
:101FC80083120313D3001930D2004F30D100D10B44
:101FD800EB2FD20BEB2FD30BEB2F831203138710AE
:101FE8000A128A155C230A128A1501308312031318
:081FF800BC000030BD00080030
:02400E00FB3F76
:00000001FF
